:1000000067EF0BF0000000003BEF0BF0000000007A
:0C001000000000000000000098EF0BF062
:0A001C00530E0D6E0D2EFED71200DC
:0C002600000000000000000000001200BC
:10003200240E0C6EB50E0D6E0D2EFED70C2EFCD7B7
:06004200000000001200A6
:100048000B820BAE2EEF00F00368026801680068AF
:080058000A360232FF0E12000D
:080060000AAE029E000E120020
:1000680000016BBF02D0819601D081866BBD02D0A2
:10007800819401D081846BBB02D0819201D08182AE
:100088006BB902D0819001D081804AB002D0838CB4
:1000980001D0839C838EC3DF839E6BB702D0819689
:1000A80001D081866BB502D0819401D081846BB375
:1000B80002D0819201D081826BB102D0819001D0AF
:1000C80081804AB002D0838C01D0839C838EA7DFC5
:0E00D800839E4AA002D0A9DF01D09CDF120057
:1000E6000B840BAE7EEF00F0010E036E026A016A0E
:0A00F600006A0A360232FF0E120003
:100100000B6A0A6A096A086A0E6A033408360450E0
:10011000085E0550D8A0053C095E0650D8A0063CF4
:100120000A5E0750D8A0073C0B5EE86AD8A0010E13
:100130000E5E0336070E0C6E0334083609360A3697
:100140000B360E36045003A012D0085E0550D8A01E
:10015000053C095E0650D8A0063C0A5E0750D8A0B0
:10016000073C0B5EE86AD8A0010E0E5E11D008268F
:100170000550D8B0053C09260650D8B0063C0A26E2
:100180000750D8B0073C0B26E86AD8B0010E0E26FF
:1001900003360C2ED1D70234083609360A360B3610
:1001A0000E36045003A012D0085E0550D8A0053CBE
:1001B000095E0650D8A0063C0A5E0750D8A0073C4E
:1001C0000B5EE86AD8A0010E0E5E11D0082605501D
:1001D000D8B0053C09260650D8B0063C0A26075080
:1001E000D8B0073C0B26E86AD8B0010E0E260236BE
:1001F000070E0C6E0234083609360A360B360E36F8
:10020000045002A012D0085E0550D8A0053C095E3B
:100210000650D8A0063C0A5E0750D8A0073C0B5EEB
:10022000E86AD8A0010E0E5E11D008260550D8B09D
:10023000053C09260650D8B0063C0A260750D8B01F
:10024000073C0B26E86AD8B0010E0E2602360C2EAB
:10025000D1D70134083609360A360B360E3604502B
:1002600002A012D0085E0550D8A0053C095E0650D9
:10027000D8A0063C0A5E0750D8A0073C0B5EE86A8F
:10028000D8A0010E0E5E11D008260550D8B0053C4E
:1002900009260650D8B0063C0A260750D8B0073CBD
:1002A0000B26E86AD8B0010E0E260136070E0C6E3A
:1002B0000134083609360A360B360E36045001A0D2
:1002C00012D0085E0550D8A0053C095E0650D8A0A3
:1002D000063C0A5E0750D8A0073C0B5EE86AD8A02F
:1002E000010E0E5E11D008260550D8B0053C092637
:1002F0000650D8B0063C0A260750D8B0073C0B265B
:10030000E86AD8B0010E0E2601360C2ED1D7003483
:10031000083609360A360B360E36045001A012D0C4
:10032000085E0550D8A0053C095E0650D8A0063CE2
:100330000A5E0750D8A0073C0B5EE86AD8A0010E01
:100340000E5E11D008260550D8B0053C092606508F
:10035000D8B0063C0A260750D8B0073C0B26E86AFE
:10036000D8B0010E0E260036070E0C6E003408368B
:1003700009360A360B360E36045000A012D0085E3D
:100380000550D8A0053C095E0650D8A0063C0A5E80
:100390000750D8A0073C0B5EE86AD8A0010E0E5E9D
:1003A00011D008260550D8B0053C09260650D8B013
:1003B000063C0A260750D8B0073C0B26E86AD8B09E
:1003C000010E0E2600360C2ED1D700B00ED00450F0
:1003D00008260550D8B0053C09260650D8B0063C82
:0C03E0000A260750D8B0073C0B2612007C
:0E03EC00026A016A006A086A036A000E1200C3
:0C03FA004A9061C06BF033DE4A801200B4
:100406000B800BAE0FEF02F0026A0AAEFF0E026E11
:0C041600016E006E0A360232FF0E12006A
:100422000A6A0350D8A40A800750D8A40A820A5044
:10043200D8B474EF02F0030AD8B42DEF02F00AB078
:1004420028EF02F006AE72EF02F070EF02F002AE99
:1004520070EF02F072EF02F00250800B0A6E029E01
:100462000650800B069E0A18D8B43EEF02F00A50DE
:10047200D8B470EF02F072EF02F00750035CD8B408
:1004820048EF02F0D8A064EF02F06AEF02F00650E3
:10049200025CD8B452EF02F0D8A064EF02F06AEF27
:1004A20002F00550015CD8B45CEF02F0D8A064EF12
:1004B20002F06AEF02F00450005CD8B474EF02F06C
:1004C200D8B06AEF02F00A52D8B472EF02F070EFBD
:1004D20002F00A52D8B470EF02F072EF02F0D88044
:0E04E2001200D8901200D880D88412001200A8
:1004F000086A096A000E07620364FDEF02F0025009
:1005000006180A6E075003267E0ED8A08EEF02F062
:10051000035ED8B001EF03F092EF02F0035ED8A0C3
:1005200005EF03F0028E068E02C00EF001C00BF044
:1005300000C00DF000500402F4CF0CF00150050291
:10054000F4CF00F0F3CF08F00402F3500C26F4507F
:100550000822000E00220D500502F3500C26F45024
:100560000822000E002202500402F3500826F45024
:10057000002202500502016A000E0122F3500026FB
:10058000F45001220D500602F3500826F4500022C8
:10059000026A000E012202220B500602F3500026CE
:1005A000F4500122000E02220E500602F3500126E2
:1005B000F450022202BEE5EF02F0083600360136A2
:1005C00002360306D8B405EF03F0F8EF02F0D88046
:1005D000800E08640030000E002201220222D8A002
:1005E000F8EF02F0023201320032034A01EF03F069
:1005F0000AAE029E000E07EF03F0010EF7DE07EFD2
:1006000003F0020E21DD07EF03F0040E6CDD120093
:10061000086A096A100E0C6E013408360936045057
:10062000085E0550D8A0053C095ED8B007D004503C
:1006300008260550D8B0053C0926D890003601366A
:060640000C2EEAD71200A7
:10064600040E0C6E3A0E0D6E0D2EFED70C2EFCD738
:04065600000012008E
:10065A000001676B686B000E685D02E10A0E675D58
:10066A000BE267516525E16E68516621E26E200E44
:10067A00E66E674B682BEFD767516525E16E6851C7
:10068A006621E26EE66A010E675F000E685B6751DB
:10069A006525696F685166216A6F0A0E046E000E3D
:1006AA00056E066E076E61C000F062C001F063C09D
:1006BA0002F064C003F01FDD08C000F009C001F0B9
:1006CA000AC002F00BC003F0300E002669C0E1FF39
:1006DA006AC0E2FF00C0E6FF0A0E046E000E056E55
:1006EA00066E076E61C000F062C001F063C002F0DE
:1006FA0064C003F000DD00C061F001C062F002C016
:10070A0063F003C064F0000E046E031808E104509D
:10071A00021805E10450011802E10050000A01E143
:0E072A0005D0010E675F000E685BB1D71200AC
:100738000D6A086A0050D8B4000C04180A6E0ABE84
:100748000D1E0B6A04AE02D0041E042A00AE02D0AD
:10075800001E002A005004100A6E0ABE1FD0045062
:10076800085E003600340836045008260036060EA7
:100778000C6E00340836045000B0085E00A008264D
:1007880000360C2EF6D700A008260BB015D00DAEFB
:10079800000C001E002A081E082A000C04AE09D00E
:1007A80000BE04D00050086E006AF1D7006A002A23
:1007B800000C001E0B2AD3D7082A0450085CD8A4C2
:0E07C800E6D7086A002A00AEE2D7FF0C120046
:0807D6000B6A0B86FF0E1200F6
:1007DE0061C004F062C005F004C002F005C003F071
:1007EE00044A052A63C000F064C001F00001634BA7
:1007FE00642B00C0E9FF01C0EAFF02C0E1FF03C0A5
:10080E00E2FFEECFE6FF02C0E9FF03C0EAFFEE52C1
:0E081E0001E0E2D761C000F062C001F01200FC
:10082C000C6A0E6A0250D8A42FEF04F001C002F03B
:10083C0000C001F0006A0E860250D8A42FEF04F01D
:10084C0001C002F0016A0E960E880250D8B441EF36
:10085C0004F00E50035ED8A4D8A046EF04F0D89054
:10086C0002BE4BEF04F0003601360236032E36EF93
:10087C0004F046EF04F0010E0C6EB2DD4FEF04F005
:10088C00020E0C6E2ADC4FEF04F0040E0C6E30ECF2
:04089C0000F0120056
:1008A0005C6A5D6A5E6A5F6A0001606B4FC058F007
:1008B00050C059F051C05AF052C05BF05B50FF0A73
:1008C00008E15A50FF0A05E15950FF0A02E1585069
:1008D000FF0A0CE153C061F054C062F0240E636F54
:1008E000000E646F7CDF030E006E56D2010E566E52
:1008F0005AAE0FD0800E5A18006E00C05AF0562A19
:100900005D2A53C0E1FF54C0E2FF2D0EE66E534A4C
:10091000542A000E006E5B1808E100505A1805E1D9
:100920000050591802E15850000A0BE153C061F021
:1009300054C062F0220E636F000E646F50DF006AD5
:100940002BD25B50FF0A08E15A50000A05E15950CA
:10095000000A02E15850000A0CE153C061F054C093
:1009600062F0280E636F000E646F39DF56C000F02E
:1009700013D2000E046E000E056E000E066E7F0E82
:10098000076E58C000F059C001F05AC002F05BC0B9
:1009900003F047DD010ED8B0000E006E00521BE0E0
:1009A00058C000F059C001F05AC002F05BC003F01B
:1009B000000E046E000E056E200E066E820E076E8F
:1009C00097DD00C058F001C059F002C05AF003C0D2
:1009D0005BF06007CED7000E046E000E056E200E91
:1009E000066E820E076E58C000F059C001F05AC062
:1009F00002F05BC003F015DD000ED8B0010E006EF2
:100A000000521BE058C000F059C001F05AC002F07B
:100A10005BC003F0CD0E046ECC0E056E4C0E066E60
:100A20007B0E076E65DD00C058F001C059F002C0B2
:100A30005AF003C05BF0602BCED7FF0E5814086E3F
:100A4000FF0E5914096E7F0E5A140A6E000E5B14C5
:100A50000B6E08C004F009C005F00AC006F00BC018
:100A600007F004360490053606360736000E581493
:100A7000006E000E5914016E000E5A14026EFF0E25
:100A80005B14036E00C058F001C059F002C05AF068
:100A900003C05BF004505810006E05505910016EF1
:100AA00006505A10026E07505B10036E00C058F0DB
:100AB00001C059F002C05AF003C05BF07F0E5B5CCE
:100AC000006E00C057F0010E5B6E00C004F058C00D
:100AD00000F059C001F05AC002F05BC003F00450AE
:100AE00007E000360090013602360336FF0FF8D7D4
:100AF00000C058F001C059F002C05AF003C05BF0CA
:100B000053C0E1FF54C0E2FF5B50300FE66E534A22
:100B1000542A5D2A800E6019006E800E010A005C66
:100B200008E3800E060A006E800E6019005C01E387
:100B30000BD053C0E1FF54C0E2FF2E0EE66E534AC5
:100B4000542A010E5C6E5D2A060E576E5750000A3D
:100B500058E05B6A58C000F059C001F05AC002F07A
:100B60005BC003F0003600900136023603360036D3
:100B700000900136023603365850002659500122A3
:100B80005A5002225B50032200C058F001C059F0B5
:100B900002C05AF003C05BF058C000F059C001F029
:100BA0005AC002F05BC003F00036009001360236F6
:100BB000033600C058F001C059F002C05AF003C01B
:100BC0005BF053C0E1FF54C0E2FF5B50300FE66EB4
:100BD000534A542A5D2A5C50000A11E160076051B3
:100BE000000A0DE1010E5F6E53C0E1FF54C0E2FF49
:100BF0002E0EE66E534A542A010E5C6E5D2A57068D
:100C0000A5D75F50010AD8B45D06FF0E5324E96EE4
:100C1000FF0E5420EA6EEE502E0A05E1010E535EDF
:100C2000000E545A5D06800E000A006E800E601998
:100C3000005C02E2010E5E6E800E6019006E800E96
:100C4000000A005C02E2020E5E6E60C057F0800E89
:100C5000090A006E800E6019005C02E35E2A02D071
:100C6000020E5E265E505D24016E026A000E0222B4
:100C7000800E0218006E800E005C02E15550015C8F
:100C80000AE253C0E1FF54C0E2FF300EE66E534A61
:100C9000542A5D2AE7D76051000A41E053C0E1FFC2
:100CA00054C0E2FF650EE66E534A542A800E601966
:100CB000006E800E000A005C0BE253C0E1FF54C0DE
:100CC000E2FF2D0EE66E534A542A60510008606F11
:100CD00060C057F0800E090A006E800E6019005C3B
:100CE0000EE20A0E046E57C000F026DD53C0E1FF8D
:100CF00054C0E2FF0050300FE66E534A542A0A0EE9
:100D0000046E57C000F018DD08C000F053C0E1FFCA
:100D100054C0E2FF0050300FE66E534A542A5E5032
:100D20005D24006E00C05DF05550005C016E01C096
:100D300057F0800E000A006E800E0118005C0EE273
:100D4000800E000A006E800E5718005C06E25706FF
:100D5000010E535E000E545AF3D718D0800E571868
:100D6000006E800E000A005C11E2800E5718006EC3
:100D7000800E000A005C0AE2572A53C0E1FF54C00B
:100D8000E2FF300EE66E534A542AEFD753C0E1FF1C
:0A0D900054C0E2FFE66A006A120098
:100D9A000FD0800E4F6E19D0C00E4F6E16D0940E23
:100DAA004F6E13D0D40E4F6E10D0800E4F6E0DD0F2
:100DBA004F50010AEEE04F50020AEEE04F50030A8C
:100DCA00EEE04F50040AEEE0F0D75004006E4F50A8
:100DDA00002600C04FF04A8000C06BF034EC00F0EF
:0E0DEA004A9051C06BF034EC00F04A801200C9
:100DF8000001726B6EC001F0010E006E015004E03C
:100E080000360090FF0FFBD700C071F06CC0E9FFFF
:100E18006DC0EAFF0050EE14016E0152010ED8A415
:100E2800000E006E7051001A18E06F51000804E2BD
:100E380006DC05DC6F07F9D76CC0E9FF6DC0EAFF77
:100E48007151EE14016E0152010ED8A4000E006E0D
:100E58007051001A02E0FF0E726F72C000F01200AB
:100E68000050086E0150006E016A026A036A0B6A3C
:100E78000C6A960E036E0A6A00C001F008C000F002
:080E8800086A026ACFDC1200C7
:100E9000576A586A4FC059F050C05AF051C05BF0C1
:100EA00052C05CF0800E5218006E800E005C08E1AB
:100EB000000E515C05E1000E505C02E1000E4F5C3B
:100EC00010E2010E576E000E586E596A5A6A5B6A3C
:100ED0005C6A4F50595E50505A5A51505B5A5250AA
:100EE0005C5A59C061F05AC062F05BC063F05CC0EC
:100EF00064F053C065F054C066F02DEC03F00B0EA7
:100F0000556E000E566E000E006E5650005C02E1EB
:100F10005550000819E255505324E16E56505420A4
:100F2000E26E010E555C006E000E5658016E0050C8
:100F30005324E96E01505420EA6EEECFE6FF010E15
:100F4000555E000E565ADFD753C0E1FF54C0E2FF92
:100F5000200EE66E575058101AE0556A566A5550E2
:100F60005324E96E56505420EA6EEE50200A03E1F5
:100F7000554A562AF4D7010E555E000E565A555062
:100F80005324E16E56505420E26E2D0EE66E120090
:100F9000536A050E535C0AE253505124E16E000E71
:100FA0005220E26E200EE66E532AF3D7535051249E
:100FB000E16E000E5220E26EE66A53065350512451
:100FC000546E000E5220556E0A0E046E000E056E11
:100FD0004FC000F050C001F008EC03F008C000F072
:100FE00009C001F0300E002654C0E1FF55C0E2FFF9
:100FF00000C0E6FF0A0E046E000E056E4FC000F042
:1010000050C001F008EC03F000C04FF001C050F0F8
:10101000000E011802E1000E001801E102D0530693
:04102000CDD7120016
:101024000B6A0C6A0A6A0350D8B45CEF08F0028EAB
:101034008E0E035E03BE24EF08F0D8B424EF08F04C
:1010440060EF08F0036C080E035CD8A03BEF08F0D7
:10105400036E013602C001F0026A080E035CD8A0D8
:101064003BEF08F00136016A0350D8A4D89045EF4D
:1010740008F00350D8B445EF08F0D890023201329A
:10108400032E3FEF08F00BBC01A052EF08F0D8A0EC
:1010940052EF08F0012AD8B4022A02BE6FEF08F01A
:1010A4000AAE75EF08F0021E011E012AD8B4022A06
:1010B40075EF08F0026A016A75EF08F00B800BAE59
:1010C40079EF08F0026A0AAE79EF08F0FF0E026EBB
:1010D400016E0A36023279EF08F0010E0C6E03EC51
:1010E40002F07BEF08F0000E0C6E7BEF08F0FF0EB1
:0C10F4000C6E0150006E0250016E1200E4
:101100000450000A12E10550000A0FE10650000ADF
:101110000CE10750000A09E1FF0E006EFF0E016EA0
:101120007F0E026EFF0E036EA8D0086A096A075090
:10113000D8B42BEF09F00350D8B430EF09F00250C7
:1011400006180A6E028E068E0E6A02C008F001C0F2
:101150000CF000C00DF004500D5E0550D8A0053C09
:101160000C5E0650D8A0063C085E086A0C6A0D6A40
:10117000D8A0C2EF08F0D890023201320032083213
:10118000010E0E6E0750035ED8A0CFEF08F07E0E62
:101190000E240326D8B035EF09F0D5EF08F07E0E07
:1011A0000E240326D8A03AEF09F0180E0B6E0D3668
:1011B0000C3608360036013602360E360450005E14
:1011C0000550D8A0053C015E0650D8A0063C025E42
:1011D00006340E120EA0F0EF08F00D80FBEF08F0C1
:1011E000045000260550D8B0053C01260650D8B062
:1011F000062802260D900B2ED7EF08F021EF09F0FC
:10120000D8900036013602360E360450005E055086
:10121000D8A0053C015E0650D8A0063C025E06340C
:101220000E10010B0D26D8B00C2AD8B4082AD8A469
:1012300021EF09F008320C320D32032AD8B435EF11
:1012400009F00AAE089E0850026E0C50016E0D5057
:10125000006E3DEF09F0010EEBEC03F03DEF09F0FD
:10126000020EF6EC01F03DEF09F0040E24EC00F064
:0C1270003DEF09F0080E73EC00F01200D6
:10127C000FD0800E4F6E19D0C00E4F6E16D0940E3C
:10128C004F6E13D0D40E4F6E10D0800E4F6E0DD00B
:10129C004F50010AEEE04F50020AEEE04F50030AA5
:1012AC00EEE04F50040AEEE0F0D75004006E4F50C1
:1012BC00002600C04FF000C06BF034EC00F04A90F8
:1012CC00536A53505124E96E000E5220EA6EEE52CE
:1012DC000CE053505124E96E000E5220EA6EEECF12
:0E12EC0061F0FDEC01F0532AECD74A801200AD
:1012FA000900F5CFE6FF0006FBE10106F9E112005D
:10130A00810E00016C6F0F0E6D6F070E6E6F960ED9
:10131A006F6F010E706F6BDD005217E04E50FF0ABF
:10132A0002E1FF0E4D1807E0FF0E4E5C02E1F50EDA
:10133A004D5C01E205D0FF0E4D6EFF0E4E6E04D0DD
:10134A000A0E4D26000E4E224A82810E6C6F0F0E37
:10135A006D6F060E6E6F960E6F6F010E706F47DD22
:10136A00005217E04E50EA0A02E1600E4D1807E0FB
:10137A004E50EA0802E14D506A0801E205D0600EBB
:10138A004D6EEA0E4E6E04D00A0E4D5E000E4E5A97
:10139A004A82810E6C6F0F0E6D6F050E6E6F960E80
:1013AA006F6F010E706F23DD005202E04A744A82A9
:0213BA0012001F
:1013BC00959E959C9390939293949396839E839CE5
:1013CC00819681948192819019EC00F019EC00F0D7
:1013DC0019EC00F081828180838E13EC00F0839EE7
:1013EC0019EC00F0838E13EC00F0839E19EC00F0E6
:1013FC00838E13EC00F0839E19EC00F08190838EA9
:10140C0013EC00F0839E19EC00F0838E13EC00F0CB
:10141C00839E81928186838E13EC00F0839E19EC5F
:10142C0000F081968180838E13EC00F0839E819076
:10143C00838E13EC00F0839E19EC00F0838E13EC7A
:10144C0000F0839E8180838E13EC00F0839E19EC58
:10145C0000F08190838E13EC00F0839E8186818452
:10146C0081828180838E13EC00F0839E19EC00F056
:04147C004A80120090
:10148000010E4F6E010E506E560E516E86DC610ECF
:10149000616FFDEC01F0720E616FFDEC01F0200E4A
:1014A000616FFDEC01F0430E616FFDEC01F0610E28
:1014B000616FFDEC01F0700E616FFDEC01F0200E2C
:1014C000616FFDEC01F03A0E616FFDEC01F0020E70
:1014D0004F6E060E506E6D0E516E5FDC730E616FB7
:1014E000FDEC01F0020E4F6E0E0E506E480E516E66
:1014F00054DC7A0E616FFDEC01F04BC000F04CC083
:1015000001F0B2DC950E046EBF0E056E560E066E2F
:10151000680E076E78EC02F0000E046E000E056E89
:10152000000E066E800E076E78EC02F0000E046E60
:10153000000E056E7A0E066E880E076EE1DD00C0A5
:101540004FF001C050F002C051F003C052F02C0E19
:10155000536E000E546E050E556E50EC04F04BC0E9
:1015600000F04CC001F080DC950E046EBF0E056EDD
:10157000560E066E680E076E78EC02F0000E046ED2
:10158000000E056E000E066E800E076E78EC02F0FF
:1015900000C004F001C005F002C006F003C007F06F
:1015A000000E006E000E016E000E026E7F0E036EC6
:1015B000A7DD38DD00C04FF001C050F03B0E516E8A
:1015C000000E526EE5DC020E4F6E010E506E2C0EB8
:1015D000516E000E526E52DE020E4F6E080E506EAD
:0C15E0003B0E516E000E526E49DE1200F0
:1015EC00010E4F6E010E506E560E516ECDEC06F084
:1015FC00610E616FFDEC01F0720E616FFDEC01F09C
:10160C00200E616FFDEC01F0490E616FFDEC01F0F5
:10161C006E0E616FFDEC01F0630E616FFDEC01F07D
:10162C00200E616FFDEC01F03A0E616FFDEC01F0E4
:10163C004DC04FF04EC050F0000E516E526E2C0E3D
:10164C00536E000E546E1EDC020E4F6E010E506E69
:0C165C002C0E516E000E526E0BDE1200C0
:0E1668004A92010E00016B6F34EC00F012008C
:1016760000C020F001C01FF002C01EF09EA01DD0C9
:10168600212A740E215CD8A08C7A740E215C02E3A8
:101696008C708C9A2150770A02E1216A8C90CE6A6E
:1016A6004EC000F0016A00C0CFFF4D50FF084B6EE0
:1016B6004EC04CF0FF0E4C569E9020C000F01FC04E
:0816C60001F01EC002F011004A
:1016CE00CAEC0BF0F28EF28CD08E1F0E956EF00ED1
:1016DE00936EFF0E946E4A84600E4D6EEA0E4E6E41
:1016EE00410ECD6ECE6ACF6A9D809F80880ED56EDC
:1016FE00B10ED76EE00ED66EF28AF194C26A0F0E5C
:10170E00C16E55DE0C0E00016B6F34EC00F04AA278
:10171E0001D0A3DF4AA402D0ACDE01D060DFF7D740
:02172E00FFD7E3
:1017300000C01BF001C01AF00CC019F00DC018F069
:10174000E9CF1CF0EACF1DF0156ED8CF16F0E0CF30
:1017500017F0F2A406D0F294B10ED76EE00ED66E5A
:10176000D4DD1750E06E1650D86E153A15381BC0F0
:1017700000F01AC001F019C00CF018C00DF01CC028
:08178000E9FF1DC0EAFF1000A3
:1017940010EE21F00B0E006E010E016E880EF66E37
:0E17A400170EF76E000EF86E7DEC09F01200C5
:011788000060
:0217890030002E
:04178B004E614E005D
:04178F00494E460079
:020000040030CA
:0E000000000C1E1EFF0381FF0FC00FE00F401B
:00000001FF
