:10000000FBEF02F000000000EDEF02F00000000046
:0C0010000000000000000000C8EF02F03B
:0C001C00000000000000000000001200C6
:10002800240E0C6EB50E0D6E0D2EFED70C2EFCD7C1
:06003800000000001200B0
:0A003E00530E0D6E0D2EFED71200BA
:100048005BBE02D0819601D081865BBC02D08194D0
:1000580001D081845BBA02D0819201D081825BB8E1
:1000680002D0819001D081804AB602D0838C01D021
:10007800839C838ECFDF839E5BB602D0819601D0AE
:1000880081865BB402D0819401D081845BB202D0B6
:10009800819201D081825BB002D0819001D08180B1
:1000A8004AB602D0838C01D0839C838EB3DF839EB3
:0C00B8004AA602D0B5DF01D0BEDF120066
:0C00C4004A965AC05BF0BEDF4A8612006C
:1000D000040E0C6E3A0E0D6E0D2EFED70C2EFCD7B4
:0400E000000012000A
:1000E4000FD0800E556E19D0C00E556E16D0940EDA
:1000F400556E13D0D40E556E10D0800E556E0DD0A3
:100104005550010AEEE05550020AEEE05550030A3C
:10011400EEE05550040AEEE0F0D75604006E555058
:10012400002600C055F04A8600C05BF08BDF4A967B
:0A01340057C05BF087DF4A86120017
:10013E000B6A0A6A096A00500402F4CF09F0F3CF81
:10014E0008F001500502F4CF0BF0F3CF0AF0005087
:10015E000502F3500926F4500A22E86A0B220150D8
:10016E000402F3500926F4500A22E86A0B2208C052
:10017E0000F009C001F00AC002F00BC003F012003B
:10018E005D6A63C001F0010E006E015004E000369E
:10019E000090FF0FFBD700C05CF061C0E9FF62C0AA
:1001AE00EAFF0050EE14016E0152010ED8A4000EAB
:1001BE00006E00016551001A18E06451000804E257
:1001CE0080DF7FDF6407F9D761C0E9FF62C0EAFF15
:1001DE005C50EE14016E0152010ED8A4000E006E9A
:1001EE006551001A02E0FF0E5D6E5DC000F0120058
:1001FE000FD0800E556E19D0C00E556E16D0940EBF
:10020E00556E13D0D40E556E10D0800E556E0DD087
:10021E005550010AEEE05550020AEEE05550030A21
:10022E00EEE05550040AEEE0F0D75604006E55503D
:10023E00002600C055F000C05BF0FFDE4A96596AFA
:10024E0059505724E96E000E5820EA6EEE520BE01C
:10025E0059505724E96E000E5820EA6EEECF5AF030
:0A026E002ADF592AEDD74A86120054
:0E027800410ECD6ECE6ACF6A9D809F8012002F
:10028600810E0001616F0F0E626F070E636F960E8F
:10029600646F010E656F78DF005205E04AB203D045
:1002A6004A804A844A88810E616F0F0E626F060E7D
:1002B600636F960E646F010E656F66DF00520DE088
:1002C6004AB20BD02250525C05E32250515C02E246
:1002D600220602D051C022F04A88810E616F0F0EAD
:1002E600626F050E636F960E646F010E656F4CDFCD
:1002F60000520DE04AB20BD05250225C05E2000ECD
:10030600225C02E3222A02D052C022F04A88810EE1
:10031600616F0F0E626F040E636F960E646F010EAF
:10032600656F32DF005207E04AA203D04A924A883C
:0803360002D04A844A8812003B
:10033E004AB00ED0450EE16E000EE26E5350E1262D
:10034E00D8B0E22A54C0E6FF532A010E546E0ED0E6
:10035E00535000080BE25306450EE96E000EEA6E8E
:10036E005350E926D8B0EA2AEECF54F054C000F02C
:02037E0012006B
:10038000010E556E010E566E540E576EABDE690EA1
:100390005A6E98DE700E5A6E95DE6F0E5A6E92DEB1
:1003A000200E5A6E8FDE640E5A6E8CDE650E5A6E0B
:1003B00089DE200E5A6E86DE730E5A6E83DE690E5B
:1003C0005A6E80DE6E0E5A6E7DDE610E5A6E7ADED9
:1003D0006C0E5A6E77DE3A0E5A6E74DE020E556E51
:1003E000010E566E110E006E000E016E22C004F05A
:1003F000000E056EA4DE230E0024576E000E0120B1
:06040000586EFDDE120043
:10040600F2A406D0F294B10ED76EE00ED66E38DFA7
:020416001200D2
:100418009EA026D0212A4D50215CD8A08C7A4D5020
:10042800215C02E38C708C9A50504D24016E026A54
:10043800000E0222000E021802E10150211802E10A
:10044800216A8C90CE6A4CC000F0016A00C0CFFFD0
:100458004B50FF084E6E4CC04FF0FF0E4F569E900B
:02046800120080
:10046A000900F5CFE6FF0006FBE10106F9E11200FB
:10047A00880ED56EB10ED76EE00ED66EF28AF19462
:02048A0012005E
:10048C00010E556E010E566E560E576E25DE610E20
:10049C005A6E12DE720E5A6E0FDE200E5A6E0CDE83
:1004AC00430E5A6E09DE610E5A6E06DE700E5A6EDF
:1004BC0003DE200E5A6E00DE3A0E5A6EFDDD12007F
:1004CC00010E526E516AD2DE4AB402D053DFFCD711
:1004DC004A9422C054F02DDF00C022F04AB000D064
:0404EC004A90120020
:0A04F0004A98010E5B6EA8DD1200B1
:1004FA00959E959C9390939293949396839E839CB6
:10050A0081968194819281908ADD89DD88DD81825C
:10051A008180838E7EDD839E82DD838E7ADD839E5B
:10052A007EDD838E76DD839E7ADD8190838E71DD1A
:10053A00839E75DD838E6DDD839E81928186838E97
:10054A0068DD839E6CDD81968180838E62DD839E69
:10055A008190838E5EDD839E62DD838E5ADD839E6B
:10056A008180838E56DD839E5ADD8190838E51DD94
:10057A00839E8186818481828180838E4ADD839EE7
:06058A004EDD4A8612005E
:1005900000C01BF001C01AF00CC019F00DC018F01B
:1005A000E9CF1CF0EACF1DF0156ED8CF16F0E0CFE2
:1005B00017F029DF1750E06E1650D86E153A15382F
:1005C0001BC000F01AC001F019C00CF018C00DF0EB
:0A05D0001CC0E9FF1DC0EAFF100087
:1005DA0000C020F001C01FF002C01EF018DF20C0CA
:0C05EA0000F01FC001F01EC002F0110064
:1005F6002FEC03F0F28EF28CD08E1F0E956EF00E5D
:10060600936EFF0E946E4A82600E4B6EEA0E4C6E2F
:10061600C26A0F0EC16E2EDF6DDF0C0E5B6E11DD32
:100626004AA801D062DF4AA202D02DDF01D04BDFFB
:04063600F7D7FFD71C
:10065E0010EE21F0240E006E010E016E3A0EF66EB3
:0E066E00060EF76E000EF86E35EC02F012006C
:01063A0000BF
:01063B0001BD
:10063C0053696E616C20496E64757469766F000045
:10064C000053696E616C2048616C6C000000000006
:02065C0000009C
:020000040030CA
:0E000000000C1E1EFF0381FF0FC00FE00F401B
:00000001FF
