:1000000025EF0CF000000000F2EF0BF00000000004
:0C001000000000000000000000EF0CF0F9
:10001C00240E0C6EB50E0D6E0D2EFED70C2EFCD7CD
:06002C00000000001200BC
:0A003200530E0D6E0D2EFED71200C6
:0C003C00000000000000000000001200A6
:100048000B6A0A6A096A086A0E6A03340836045099
:10005800085E0550D8A0053C095E0650D8A0063CAD
:100068000A5E0750D8A0073C0B5EE86AD8A0010ECC
:100078000E5E0336070E0C6E0334083609360A3650
:100088000B360E36045003A012D0085E0550D8A0D7
:10009800053C095E0650D8A0063C0A5E0750D8A069
:1000A800073C0B5EE86AD8A0010E0E5E11D0082648
:1000B8000550D8B0053C09260650D8B0063C0A269B
:1000C8000750D8B0073C0B26E86AD8B0010E0E26B8
:1000D80003360C2ED1D70234083609360A360B36C9
:1000E8000E36045003A012D0085E0550D8A0053C77
:1000F800095E0650D8A0063C0A5E0750D8A0073C07
:100108000B5EE86AD8A0010E0E5E11D008260550D5
:10011800D8B0053C09260650D8B0063C0A26075038
:10012800D8B0073C0B26E86AD8B0010E0E26023676
:10013800070E0C6E0234083609360A360B360E36B0
:10014800045002A012D0085E0550D8A0053C095EF4
:100158000650D8A0063C0A5E0750D8A0073C0B5EA4
:10016800E86AD8A0010E0E5E11D008260550D8B056
:10017800053C09260650D8B0063C0A260750D8B0D8
:10018800073C0B26E86AD8B0010E0E2602360C2E64
:10019800D1D70134083609360A360B360E360450E4
:1001A80002A012D0085E0550D8A0053C095E065092
:1001B800D8A0063C0A5E0750D8A0073C0B5EE86A48
:1001C800D8A0010E0E5E11D008260550D8B0053C07
:1001D80009260650D8B0063C0A260750D8B0073C76
:1001E8000B26E86AD8B0010E0E260136070E0C6EF3
:1001F8000134083609360A360B360E36045001A08B
:1002080012D0085E0550D8A0053C095E0650D8A05B
:10021800063C0A5E0750D8A0073C0B5EE86AD8A0E7
:10022800010E0E5E11D008260550D8B0053C0926EF
:100238000650D8B0063C0A260750D8B0073C0B2613
:10024800E86AD8B0010E0E2601360C2ED1D700343C
:10025800083609360A360B360E36045001A012D07D
:10026800085E0550D8A0053C095E0650D8A0063C9B
:100278000A5E0750D8A0073C0B5EE86AD8A0010EBA
:100288000E5E11D008260550D8B0053C0926065048
:10029800D8B0063C0A260750D8B0073C0B26E86AB7
:1002A800D8B0010E0E260036070E0C6E0034083644
:1002B80009360A360B360E36045000A012D0085EF6
:1002C8000550D8A0053C095E0650D8A0063C0A5E39
:1002D8000750D8A0073C0B5EE86AD8A0010E0E5E56
:1002E80011D008260550D8B0053C09260650D8B0CC
:1002F800063C0A260750D8B0073C0B26E86AD8B057
:10030800010E0E2600360C2ED1D700B00ED00450A8
:1003180008260550D8B0053C09260650D8B0063C3A
:0C0328000A260750D8B0073C0B26120034
:10033400000177BF02D0819601D0818677BD02D0BB
:10034400819401D0818477BB02D0819201D08182D3
:1003540077B902D0819001D0818040B802D0838CDB
:1003640001D0839C838E68DE839E77B702D081960A
:1003740001D0818677B502D0819401D0818477B38E
:1003840002D0819201D0818277B102D0819001D0D4
:10039400818040B802D0838C01D0839C838E4CDE54
:0E03A400839E40A802D038DE01D041DE120058
:1003B2000B820BAEE3EF01F003680268016800688C
:0803C2000A360232FF0E1200A0
:0E03CA00026A016A006A086A036A000E1200E5
:0803D8000AAE029E000E1200A5
:1003E0000B840BAEFBEF01F0010E036E026A016A93
:0A03F000006A0A360232FF0E120006
:1003FA000D6A086A0050D8B4000C04180A6E0ABEC6
:10040A000D1E0B6A04AE02D0041E042A00AE02D0EE
:10041A00001E002A005004100A6E0ABE1FD00450A3
:10042A00085E003600340836045008260036060EE8
:10043A000C6E00340836045000B0085E00A008268E
:10044A0000360C2EF6D700A008260BB015D00DAE3C
:10045A00000C001E002A081E082A000C04AE09D04F
:10046A0000BE04D00050086E006AF1D7006A002A64
:10047A00000C001E0B2AD3D7082A0450085CD8A403
:0E048A00E6D7086A002A00AEE2D7FF0C120087
:0C04980040986DC077F04ADF40881200E9
:1004A400086A096A000E07620364D7EF02F002507B
:1004B40006180A6E075003267E0ED8A068EF02F0D5
:1004C400035ED8B0DBEF02F06CEF02F0035ED8A05D
:1004D400DFEF02F0028E068E02C00EF001C00BF0B8
:1004E40000C00DF000500402F4CF0CF001500502DE
:1004F400F4CF00F0F3CF08F00402F3500C26F450CC
:100504000822000E00220D500502F3500C26F45070
:100514000822000E002202500402F3500826F45070
:10052400002202500502016A000E0122F350002647
:10053400F45001220D500602F3500826F450002214
:10054400026A000E012202220B500602F35000261A
:10055400F4500122000E02220E500602F35001262E
:10056400F450022202BEBFEF02F008360036013614
:1005740002360306D8B4DFEF02F0D2EF02F0D880DF
:10058400800E08640030000E002201220222D8A04E
:10059400D2EF02F0023201320032034ADBEF02F002
:1005A4000AAE029E000EE1EF02F0010E0CDFE1EF55
:1005B40002F0020EFCDEE1EF02F0040E0FDF120087
:0805C4000B6A0B86FF0E12000A
:1005CC000A6A0350D8A40A800750D8A40A820A5099
:1005DC00D8B449EF03F0030AD8B402EF03F00AB021
:1005EC00FDEF02F006AE47EF03F045EF03F002AE6D
:1005FC0045EF03F047EF03F00250800B0A6E029EAA
:10060C000650800B069E0A18D8B413EF03F00A505C
:10061C00D8B445EF03F047EF03F00750035CD8B4B0
:10062C001DEF03F0D8A039EF03F03FEF03F00650B5
:10063C00025CD8B427EF03F0D8A039EF03F03FEFFA
:10064C0003F00550015CD8B431EF03F0D8A039EFBA
:10065C0003F03FEF03F00450005CD8B449EF03F013
:10066C00D8B03FEF03F00A52D8B447EF03F045EF90
:10067C0003F00A52D8B445EF03F047EF03F0D880EB
:0E068C001200D8901200D880D88412001200FC
:10069A00086A096A100E0C6E0134083609360450CD
:1006AA00085E0550D8A0053C095ED8B007D00450B2
:1006BA0008260550D8B0053C0926D89000360136E0
:0606CA000C2EEAD712001D
:1006D000040E0C6E3A0E0D6E0D2EFED70C2EFCD7AE
:0406E0000000120004
:1006E4006DC004F06EC005F004C002F005C003F054
:1006F400044A052A6FC000F070C001F000016F4B7E
:10070400702B00C0E9FF01C0EAFF02C0E1FF03C093
:10071400E2FFEECFE6FF02C0E9FF03C0EAFFEE52BC
:0E07240001E0E2D76DC000F06EC001F01200DF
:100732000B800BAEA5EF03F0026A0AAEFF0E026E4B
:0C074200016E006E0A360232FF0E12003B
:10074E000001736B746B000E745D02E10A0E735D33
:10075E000BE273517125E16E74517221E26E200E1F
:10076E00E66E734B742BEFD773517125E16E745196
:10077E007221E26EE66A010E735F000E745B7351B6
:10078E007125756F74517221766F0A0E046E000E0C
:10079E00056E066E076E6DC000F06EC001F06FC084
:1007AE0002F070C003F049DC08C000F009C001F08F
:1007BE000AC002F00BC003F0300E002675C0E1FF38
:1007CE0076C0E2FF00C0E6FF0A0E046E000E056E54
:1007DE00066E076E6DC000F06EC001F06FC002F0C5
:1007EE0070C003F02ADC00C06DF001C06EF002C0D4
:1007FE006FF003C070F0000E046E031808E1045091
:10080E00021805E10450011802E10050000A01E14E
:0E081E0005D0010E735F000E745BB1D712009F
:10082C000C6A0E6A0250D8A42FEF04F001C002F03B
:10083C0000C001F0006A0E860250D8A42FEF04F01D
:10084C0001C002F0016A0E960E880250D8B441EF36
:10085C0004F00E50035ED8A4D8A046EF04F0D89054
:10086C0002BE4BEF04F0003601360236032E36EF93
:10087C0004F046EF04F0010E0C6EA1DD4EEF04F017
:10088C00020E0C6EA7DD4EEF04F0040E0C6E9EDD16
:02089C00120048
:10089E000450000A12E10550000A0FE10650000A4A
:1008AE000CE10750000A09E1FF0E006EFF0E016E0B
:1008BE007F0E026EFF0E036EA4D0086A096A0750FF
:1008CE00D8B4FAEF04F00350D8B4FEEF04F002509F
:1008DE0006180A6E028E068E0E6A02C008F001C05D
:1008EE000CF000C00DF004500D5E0550D8A0053C74
:1008FE000C5E0650D8A0063C085E086A0C6A0D6AAB
:10090E00D8A091EF04F0D8900232013200320832B2
:10091E00010E0E6E0750035ED8A09EEF04F07E0E01
:10092E000E240326D8B002EF05F0A4EF04F07E0EDD
:10093E000E240326D8A006EF05F0180E0B6E0D360A
:10094E000C3608360036013602360E360450005E7E
:10095E000550D8A0053C015E0650D8A0063C025EAC
:10096E0006340E120EA0BFEF04F00D80CAEF04F095
:10097E00045000260550D8B0053C01260650D8B0CC
:10098E00062802260D900B2EA6EF04F0F0EF04F0D1
:10099E00D8900036013602360E360450005E0550F1
:1009AE00D8A0053C015E0650D8A0063C025E063477
:1009BE000E10010B0D26D8B00C2AD8B4082AD8A4D4
:1009CE00F0EF04F008320C320D32032AD8B402EFE5
:1009DE0005F00AAE089E0850026E0C50016E0D50C6
:1009EE00006E08EF05F0010EE6DD08EF05F0020ED1
:1009FE00E5DC08EF05F0040ED5DC08EF05F0080E77
:040A0E00E8DC12000E
:100A12000FD0800E5B6E19D0C00E5B6E16D0940E96
:100A22005B6E13D0D40E5B6E10D0800E5B6E0DD059
:100A32005B50010AEEE05B50020AEEE05B50030AF3
:100A4200EEE05B50040AEEE0F0D75C04006E5B500F
:100A5200002600C05BF0408800C077F06ADC409856
:0A0A62005DC077F066DC40881200EA
:100A6C0000017E6B7AC001F0010E006E015004E0B3
:100A7C0000360090FF0FFBD700C07DF078C0E9FF77
:100A8C0079C0EAFF0050EE14016E0152010ED8A499
:100A9C00000E006E7C51001A18E07B51000804E235
:100AAC0011DE10DE7B07F9D778C0E9FF79C0EAFFC9
:100ABC007D51EE14016E0152010ED8A4000E006E91
:100ACC007C51001A02E0FF0E7E6F7EC000F0120017
:100ADC000050086E0150006E016A026A036A0B6ACC
:100AEC000C6A960E036E0A6A00C001F008C000F092
:080AFC00086A026A95DE12008F
:100B04005D6A5E6A61C067F062C068F063C069F0E4
:100B140064C06AF0800E00016419006E800E005CEF
:100B240008E1000E635D05E1000E625D02E1000E66
:100B3400615D10E2010E5D6E000E5E6E676B686BA8
:100B4400696B6A6B6151675F6251685B6351695B92
:100B540064516A5B67C06DF068C06EF069C06FF085
:100B64006AC070F065C071F066C072F0EEDD0B0E05
:100B74005B6E000E5C6E000E006E5C50005C02E169
:100B84005B50000819E25B506525E16E5C506621FC
:100B9400E26E010E5B5C006E000E5C58016E00504C
:100BA4006525E96E01506621EA6EEECFE6FF010E7F
:100BB4005B5E000E5C5ADFD765C0E1FF66C0E2FFF2
:100BC400200EE66E5D505E101AE05B6A5C6A5B5054
:100BD4006525E96E5C506621EA6EEE50200A03E159
:100BE4005B4A5C2AF4D7010E5B5E000E5C5A5B50D4
:100BF4006525E16E5C506621E26E2D0EE66E1200F4
:100C04000FD0800E5B6E19D0C00E5B6E16D0940EA2
:100C14005B6E13D0D40E5B6E10D0800E5B6E0DD065
:100C24005B50010AEEE05B50020AEEE05B50030AFF
:100C3400EEE05B50040AEEE0F0D75C04006E5B501B
:100C4400002600C05BF000C077F09AEC01F04098F9
:100C54005F6A5F505D24E96E000E5E20EA6EEE521C
:100C64000BE05F505D24E96E000E5E20EA6EEECF6D
:0C0C74006DF010DC5F2AEDD74088120004
:100C80005F6A050E5F5C0AE25F505D24E16E000E54
:100C90005E20E26E200EE66E5F2AF3D75F505D2481
:100CA000E16E000E5E20E26EE66A5F065F505D2434
:100CB0000001606F000E5E20616F0A0E046E000E70
:100CC000056E5BC000F05CC001F0E7DC08C000F01E
:100CD00009C001F0300E002660C0E1FF61C0E2FFF4
:100CE00000C0E6FF0A0E046E000E056E5BC000F049
:100CF0005CC001F0D2DC00C05BF001C05CF0000E13
:100D0000011802E1000E001801E102D05F06CED703
:020D10001200CF
:100D12000B6A0C6A0A6A0350D8B4D3EF06F0028E4B
:100D22008E0E035E03BE9BEF06F0D8B49BEF06F077
:100D3200D7EF06F0036C080E035CD8A0B2EF06F002
:100D4200036E013602C001F0026A080E035CD8A0ED
:100D5200B2EF06F00136016A0350D8A4D890BCEF76
:100D620006F00350D8B4BCEF06F0D890023201323C
:100D7200032EB6EF06F00BBC01A0C9EF06F0D8A017
:100D8200C9EF06F0012AD8B4022A02BEE6EF06F045
:100D92000AAEEBEF06F0021E011E012AD8B4022AA7
:100DA200EBEF06F0026A016AEBEF06F00B800BAE86
:100DB200EFEF06F0026A0AAEEFEF06F0FF0E026EE8
:100DC200016E0A360232EFEF06F0010E0C6EB0DC55
:100DD200F1EF06F0000E0C6EF1EF06F0FF0E0C6E56
:0A0DE2000150006E0250016E120075
:100DEC000001686B696B6A6B6B6B6C6B61C05DF05F
:100DFC0062C05EF063C05FF064C060F06051FF0AD7
:100E0C0008E15F50FF0A05E15E50FF0A02E15D5008
:100E1C00FF0A0CE165C06DF066C06EF0270E6F6FB7
:100E2C00000E706F59DC030E006E5CD2010E5B6E0F
:100E3C005FAE0FD0800E5F18006E00C05FF05B2AB3
:100E4C00692B65C0E1FF66C0E2FF2D0EE66E654BB7
:100E5C00662B000E006E601908E100505F1805E16A
:100E6C0000505E1802E15D50000A0BE165C06DF0A8
:100E7C0066C06EF0210E6F6F000E706F2DDC006A75
:100E8C0031D26051FF0A08E15F50000A05E15E5063
:100E9C00000A02E15D50000A0CE165C06DF066C00D
:100EAC006EF0230E6F6F000E706F16DC5BC000F0DF
:100EBC0019D2000E046E000E056E000E066E7F0E2B
:100ECC00076E5DC000F05EC001F05FC002F060C054
:100EDC0003F0E6EC02F0010ED8B0000E006E0052EA
:100EEC001CE05DC000F05EC001F05FC002F060C0AD
:100EFC0003F0000E046E000E056E200E066E820EC0
:100F0C00076E52EC02F000C05DF001C05EF002C052
:100F1C005FF003C060F06C07CCD7000E046E000EBF
:100F2C00056E200E066E820E076E5DC000F05EC070
:100F3C0001F05FC002F060C003F0E6EC02F0000EBE
:100F4C00D8B0010E006E00521CE05DC000F05EC017
:100F5C0001F05FC002F060C003F0CD0E046ECC0E49
:100F6C00056E4C0E066E7B0E076E52EC02F000C046
:100F7C005DF001C05EF002C05FF003C060F06C2B4E
:100F8C00CCD7FF0E5D14086EFF0E5E14096E7F0E3B
:100F9C005F140A6E000E60150B6E08C004F009C0D9
:100FAC0005F00AC006F00BC007F0043604900536B5
:100FBC0006360736000E5D14006E000E5E14016ED0
:100FCC00000E5F14026EFF0E6015036E00C05DF024
:100FDC0001C05EF002C05FF003C060F004505D1011
:100FEC00006E05505E10016E06505F10026E0750C9
:100FFC006011036E00C05DF001C05EF002C05FF0D6
:10100C0003C060F07F0E605D006E00C05CF0010EEE
:10101C00606F00C004F05DC000F05EC001F05FC006
:10102C0002F060C003F0045007E000360090013677
:10103C0002360336FF0FF8D700C05DF001C05EF03A
:10104C0002C05FF003C060F065C0E1FF66C0E2FF64
:10105C006051300FE66E654B662B692B800E6C1958
:10106C00006E800E010A005C08E3800E060A006E1A
:10107C00800E6C19005C01E30BD065C0E1FF66C00B
:10108C00E2FF2E0EE66E654B662B010E686F692B28
:10109C00060E5C6E5C50000A58E0606B5DC000F0A0
:1010AC005EC001F05FC002F060C003F0003600903B
:1010BC00013602360336003600900136023603360E
:1010CC005D5000265E5001225F50022260510322C7
:1010DC0000C05DF001C05EF002C05FF003C060F0C4
:1010EC005DC000F05EC001F05FC002F060C003F0B4
:1010FC000036009001360236033600C05DF001C0A8
:10110C005EF002C05FF003C060F065C0E1FF66C036
:10111C00E2FF6051300FE66E654B662B692B685110
:10112C00000A11E16C076C51000A0DE1010E6B6FA6
:10113C0065C0E1FF66C0E2FF2E0EE66E654B662BC6
:10114C00010E686F692B5C06A5D76B51010AD8B4E8
:10115C006907FF0E6525E96EFF0E6621EA6EEE50FB
:10116C002E0A05E1010E655F000E665B6907800EB5
:10117C00000A006E800E6C19005C02E2010E6A6FB0
:10118C00800E6C19006E800E000A005C02E2020EEA
:10119C006A6F6CC05CF0800E090A006E800E6C19D0
:1011AC00005C02E36A2B02D0020E6A276A516925A1
:1011BC00016E026A000E0222800E0218006E800E72
:1011CC00005C02E16751015C0AE265C0E1FF66C0A8
:1011DC00E2FF300EE66E654B662B692BE7D76C5140
:1011EC00000A43E065C0E1FF66C0E2FF650EE66EF3
:1011FC00654B662B800E6C19006E800E000A005C2D
:10120C000BE265C0E1FF66C0E2FF2D0EE66E654B9A
:10121C00662B6C5100086C6F6CC05CF0800E090A78
:10122C00006E800E6C19005C0FE20A0E046E5CC03E
:10123C0000F0FDEC01F065C0E1FF66C0E2FF00507C
:10124C00300FE66E654B662B0A0E046E5CC000F028
:10125C00FDEC01F008C000F065C0E1FF66C0E2FFE4
:10126C000050300FE66E654B662B6A516925006E97
:10127C0000C069F06751005C016E01C05CF0800E2B
:10128C00000A006E800E0118005C0EE2800E000A4F
:10129C00006E800E5C18005C06E25C06010E655F59
:1012AC00000E665BF3D718D0800E5C18006E800EB3
:1012BC00000A005C11E2800E5C18006E800E000AC1
:1012CC00005C0AE25C2A65C0E1FF66C0E2FF300EFA
:1012DC00E66E654B662BEFD765C0E1FF66C0E2FF9B
:0612EC00E66A006A120030
:1012F200010E5B6E010E5C6E560E5D6E09EC05F022
:10130200610E6D6F4CEC02F0720E6D6F4CEC02F0E0
:10131200200E6D6F4CEC02F0430E6D6F4CEC02F040
:10132200610E6D6F4CEC02F0700E6D6F4CEC02F0C2
:10133200200E6D6F4CEC02F03A0E6D6F4CEC02F029
:10134200020E5B6E060E5C6E6D0E5D6E09EC05F0B4
:10135200730E6D6F4CEC02F0020E5B6E0E0E5C6E45
:10136200480E5D6E09EC05F07A0E6D6F4CEC02F0E2
:101372002DC000F02EC001F06EEC05F0950E046E4B
:10138200BF0E056E560E066E680E076E52EC02F028
:10139200000E046E000E056E000E066E800E076EC5
:1013A20052EC02F0000E046E000E056E7A0E066E0E
:1013B200880E076E4FEC04F000C061F001C062F0CD
:1013C20002C063F003C064F02F0E0001656F000ECF
:1013D200666F050E676F09DD2DC000F02EC001F0AB
:1013E2006EEC05F0950E046EBF0E056E560E066E7F
:1013F200680E076E52EC02F0000E046E000E056ECF
:10140200000E066E800E076E52EC02F000C004F071
:1014120001C005F002C006F003C007F0000E006E26
:10142200000E016E000E026E7F0E036E4FEC04F092
:101432006FDC00C05BF001C05CF0410E5D6E000E1F
:101442005E6E1DDC020E5B6E010E5C6E2F0E5D6E1B
:10145200000E5E6E02EC06F0020E5B6E080E5C6E13
:0E146200410E5D6E000E5E6E02EC06F0120092
:10147000810E0001786F0F0E796F070E7A6F960E4E
:101480007B6F010E7C6F36EC05F0005205E040B436
:1014900003D0408640824080810E786F0F0E796FB6
:1014A000060E7A6F960E7B6F010E7C6F36EC05F0A0
:1014B00000520DE040B40BD02B50505C05E32B5094
:1014C000515C02E22B0602D051C02BF04080810E0D
:1014D000786F0F0E796F050E7A6F960E7B6F010E87
:1014E0007C6F36EC05F000520DE040B40BD050504C
:1014F0002B5C05E2000E2B5C02E32B2A02D050C0CD
:101500002BF04080810E786F0F0E796F040E7A6F8A
:10151000960E7B6F010E7C6F36EC05F0005207E0F3
:1015200040A403D04094408002D04082408012000A
:1015300040B60ED0530EE16E000EE26E5250E12620
:10154000D8B0E22A5AC0E6FF522A010E5A6E0ED0D7
:10155000525000080BE25206530EE96E000EEA6E7E
:101560005250E926D8B0EA2AEECF5AF05AC000F01D
:02157000120067
:10157200010E5B6E010E5C6E560E5D6E09EC05F09F
:10158200610E6D6F4CEC02F0720E6D6F4CEC02F05E
:10159200200E6D6F4CEC02F0490E6D6F4CEC02F0B8
:1015A2006E0E6D6F4CEC02F0630E6D6F4CEC02F040
:1015B200200E6D6F4CEC02F03A0E6D6F4CEC02F0A7
:1015C2003EC061F03FC062F0000E636F646F2F0E89
:1015D200656F000E666F82EC05F0020E5B6E010E07
:1015E2005C6E2F0E5D6E000E5E6E02EC06F0120057
:0E15F200410ECD6ECE6ACF6A9D809F801200A2
:101600000900F5CFE6FF0006FBE10106F9E1120053
:10161000F2A406D0F294B10ED76EE00ED66E28DF9B
:021620001200B6
:101622009EA026D02C2A59502C5CD8A08C7A5950D6
:101632002C5C02E38C708C9A58505924016E026A19
:10164200000E0222000E021802E101502C1802E1E3
:101652002C6A8C90CE6A3FC000F0016A00C0CFFFB6
:101662003E50FF082D6E3FC02EF0FF0E2E569E906C
:02167200120064
:0E1674004090010E0001776F9AEC01F0120019
:10168200010E5B6E010E5C6E560E5D6E09EC05F08E
:10169200610E6D6F4CEC02F0720E6D6F4CEC02F04D
:1016A200200E6D6F4CEC02F0430E6D6F4CEC02F0AD
:1016B200610E6D6F4CEC02F0700E6D6F4CEC02F02F
:1016C200200E6D6F4CEC02F03A0E6D6F4CEC02F096
:0216D200120004
:1016D400020E506E010E516E8ADF40B20CD004D05F
:1016E40006DE08D044DF06D02B50010AF9E02B5067
:1016F400020AF8E0F2D740922BC05AF017DF00C07C
:0A1704002BF040B600D04096120012
:10170E00880ED56EB10ED76EE00ED66EF28AF194BB
:02171E001200B7
:10172000959E959C9390939293949396839E839C7D
:1017300081968194819281900EEC00F00EEC00F085
:101740000EEC00F081828180838E1EEC00F0839E7F
:101750000EEC00F0838E1EEC00F0839E0EEC00F089
:10176000838E1EEC00F0839E0EEC00F08190838E41
:101770001EEC00F0839E0EEC00F0838E1EEC00F059
:10178000839E81928186838E1EEC00F0839E0EECF8
:1017900000F081968180838E1EEC00F0839E819004
:1017A000838E1EEC00F0839E0EEC00F0838E1EEC08
:1017B00000F0839E8180838E1EEC00F0839E0EECF1
:1017C00000F08190838E1EEC00F0839E81868184E0
:1017D00081828180838E1EEC00F0839E0EEC00F0EF
:0417E000408812002B
:1017E40000C020F001C01FF002C01EF018DF20C0AE
:0C17F40000F01FC001F01EC002F0110048
:1018000000C01BF001C01AF00CC019F00DC018F098
:10181000E9CF1CF0EACF1DF0156ED8CF16F0E0CF5F
:1018200017F0F6DE1750E06E1650D86E153A1538E0
:101830001BC000F01AC001F019C00CF018C00DF068
:0A1840001CC0E9FF1DC0EAFF100004
:10184A004FEC0CF0F28EF28CD08E1F0E956EF00ECD
:10185A00936EFF0E946E4084600E3E6EEA0E3F6EEB
:10186A00C26A0F0EC16E4EDF56DF0C0E0001776F93
:10187A009AEC01F040A001D0F8DE40A402D0FCDED0
:08188A0001D023DFF7D7FFD7DF
:10189E0010EE21F00C0E006E010E016E920EF66E21
:0E18AE00180EF76E000EF86E00EC0BF0120034
:02189200300024
:04189400494E460073
:041898004E614E004F
:01189C00014A
:01189D00004A
:020000040030CA
:0E000000000C1E1EFF0381FF0FC00FE00F401B
:00000001FF
