:1000000019EF0CF0000000000BEF0CF000000000F6
:0C0010000000000000000000E6EF0BF014
:0A001C00530E0D6E0D2EFED71200DC
:0C002600000000000000000000001200BC
:10003200240E0C6EB50E0D6E0D2EFED70C2EFCD7B7
:06004200000000001200A6
:100048000B820BAE2EEF00F00368026801680068AF
:080058000A360232FF0E12000D
:100060000B840BAE3BEF00F0010E036E026A016AD7
:0A007000006A0A360232FF0E120089
:08007A000AAE029E000E120006
:1000820000016DBF02D0819601D081866DBD02D084
:10009200819401D081846DBB02D0819201D0818292
:1000A2006DB902D0819001D081802DB202D0838CB3
:1000B20001D0839C838EB6DF839E6DB702D081967A
:1000C20001D081866DB502D0819401D081846DB357
:1000D20002D0819201D081826DB102D0819001D093
:1000E20081802DB202D0838C01D0839C838E9ADFD3
:0E00F200839E2DA202D09CDF01D08FDF120072
:10010000040E0C6E3A0E0D6E0D2EFED70C2EFCD783
:0401100000001200D9
:100114000B6A0A6A096A086A0E6A033408360450CC
:10012400085E0550D8A0053C095E0650D8A0063CE0
:100134000A5E0750D8A0073C0B5EE86AD8A0010EFF
:100144000E5E0336070E0C6E0334083609360A3683
:100154000B360E36045003A012D0085E0550D8A00A
:10016400053C095E0650D8A0063C0A5E0750D8A09C
:10017400073C0B5EE86AD8A0010E0E5E11D008267B
:100184000550D8B0053C09260650D8B0063C0A26CE
:100194000750D8B0073C0B26E86AD8B0010E0E26EB
:1001A40003360C2ED1D70234083609360A360B36FC
:1001B4000E36045003A012D0085E0550D8A0053CAA
:1001C400095E0650D8A0063C0A5E0750D8A0073C3A
:1001D4000B5EE86AD8A0010E0E5E11D00826055009
:1001E400D8B0053C09260650D8B0063C0A2607506C
:1001F400D8B0073C0B26E86AD8B0010E0E260236AA
:10020400070E0C6E0234083609360A360B360E36E3
:10021400045002A012D0085E0550D8A0053C095E27
:100224000650D8A0063C0A5E0750D8A0073C0B5ED7
:10023400E86AD8A0010E0E5E11D008260550D8B089
:10024400053C09260650D8B0063C0A260750D8B00B
:10025400073C0B26E86AD8B0010E0E2602360C2E97
:10026400D1D70134083609360A360B360E36045017
:1002740002A012D0085E0550D8A0053C095E0650C5
:10028400D8A0063C0A5E0750D8A0073C0B5EE86A7B
:10029400D8A0010E0E5E11D008260550D8B0053C3A
:1002A40009260650D8B0063C0A260750D8B0073CA9
:1002B4000B26E86AD8B0010E0E260136070E0C6E26
:1002C4000134083609360A360B360E36045001A0BE
:1002D40012D0085E0550D8A0053C095E0650D8A08F
:1002E400063C0A5E0750D8A0073C0B5EE86AD8A01B
:1002F400010E0E5E11D008260550D8B0053C092623
:100304000650D8B0063C0A260750D8B0073C0B2646
:10031400E86AD8B0010E0E2601360C2ED1D700346F
:10032400083609360A360B360E36045001A012D0B0
:10033400085E0550D8A0053C095E0650D8A0063CCE
:100344000A5E0750D8A0073C0B5EE86AD8A0010EED
:100354000E5E11D008260550D8B0053C092606507B
:10036400D8B0063C0A260750D8B0073C0B26E86AEA
:10037400D8B0010E0E260036070E0C6E0034083677
:1003840009360A360B360E36045000A012D0085E29
:100394000550D8A0053C095E0650D8A0063C0A5E6C
:1003A4000750D8A0073C0B5EE86AD8A0010E0E5E89
:1003B40011D008260550D8B0053C09260650D8B0FF
:1003C400063C0A260750D8B0073C0B26E86AD8B08A
:1003D400010E0E2600360C2ED1D700B00ED00450DC
:1003E40008260550D8B0053C09260650D8B0063C6E
:0C03F4000A260750D8B0073C0B26120068
:0E040000026A016A006A086A036A000E1200AE
:10040E000001696B6A6B000E6A5D02E10A0E695D9E
:10041E000BE269516725E16E6A516821E26E200E8A
:10042E00E66E694B6A2BEFD769516725E16E6A510B
:10043E006821E26EE66A010E695F000E6A5B695121
:10044E0067256B6F6A5168216C6F0A0E046E000E81
:10045E00056E066E076E63C000F064C001F065C0E5
:10046E0002F066C003F04FDE08C000F009C001F0D4
:10047E000AC002F00BC003F0300E00266BC0E1FF85
:10048E006CC0E2FF00C0E6FF0A0E046E000E056EA1
:10049E00066E076E63C000F064C001F065C002F026
:1004AE0066C003F030DE00C063F001C064F002C02D
:1004BE0065F003C066F0000E046E031808E10450E8
:1004CE00021805E10450011802E10050000A01E192
:0E04DE0005D0010E695F000E6A5BB1D71200F7
:1004EC000B800BAE82EF02F0026A0AAEFF0E026EB8
:0C04FC00016E006E0A360232FF0E120084
:100508000A6A0350D8A40A800750D8A40A820A505D
:10051800D8B4E7EF02F0030AD8B4A0EF02F00AB0AB
:100528009BEF02F006AEE5EF02F0E3EF02F002AE59
:10053800E3EF02F0E5EF02F00250800B0A6E029E34
:100548000650800B069E0A18D8B4B1EF02F00A5084
:10055800D8B4E3EF02F0E5EF02F00750035CD8B43B
:10056800BBEF02F0D8A0D7EF02F0DDEF02F00650A3
:10057800025CD8B4C5EF02F0D8A0D7EF02F0DDEFE7
:1005880002F00550015CD8B4CFEF02F0D8A0D7EF45
:1005980002F0DDEF02F00450005CD8B4E7EF02F09F
:1005A800D8B0DDEF02F00A52D8B4E5EF02F0E3EF7D
:1005B80002F00A52D8B4E3EF02F0E5EF02F0D88077
:0E05C8001200D8901200D880D88412001200C1
:1005D600086A096A000E0762036470EF03F00250AE
:1005E60006180A6E075003267E0ED8A001EF03F008
:1005F600035ED8B074EF03F005EF03F0035ED8A0F6
:1006060078EF03F0028E068E02C00EF001C00BF0EA
:1006160000C00DF000500402F4CF0CF001500502AA
:10062600F4CF00F0F3CF08F00402F3500C26F45098
:100636000822000E00220D500502F3500C26F4503D
:100646000822000E002202500402F3500826F4503D
:10065600002202500502016A000E0122F350002614
:10066600F45001220D500602F3500826F4500022E1
:10067600026A000E012202220B500602F3500026E7
:10068600F4500122000E02220E500602F3500126FB
:10069600F450022202BE58EF03F008360036013647
:1006A60002360306D8B478EF03F06BEF03F0D88078
:1006B600800E08640030000E002201220222D8A01B
:1006C6006BEF03F0023201320032034A74EF03F09B
:1006D6000AAE029E000E7AEF03F0010E8EDE7AEF6E
:1006E60003F0020EAEDC7AEF03F0040EB6DC120065
:1006F600086A096A100E0C6E013408360936045071
:10070600085E0550D8A0053C095ED8B007D0045055
:1007160008260550D8B0053C0926D8900036013683
:060726000C2EEAD71200C0
:10072C000001746B70C001F0010E006E015004E00A
:10073C0000360090FF0FFBD700C073F06EC0E9FFCE
:10074C006FC0EAFF0050EE14016E0152010ED8A4E6
:10075C00000E006E7251001A18E07151000804E28C
:10076C00C9DCC8DC7107F9D76EC0E9FF6FC0EAFFBE
:10077C007351EE14016E0152010ED8A4000E006EDE
:10078C007251001A02E0FF0E746F74C000F0120078
:0C079C002D9263C06DF06FDC2D82120006
:1007A8000D6A086A0050D8B4000C04180A6E0ABE14
:1007B8000D1E0B6A04AE02D0041E042A00AE02D03D
:1007C800001E002A005004100A6E0ABE1FD00450F2
:1007D800085E003600340836045008260036060E37
:1007E8000C6E00340836045000B0085E00A00826DD
:1007F80000360C2EF6D700A008260BB015D00DAE8B
:10080800000C001E002A081E082A000C04AE09D09D
:1008180000BE04D00050086E006AF1D7006A002AB2
:10082800000C001E0B2AD3D7082A0450085CD8A451
:0E083800E6D7086A002A00AEE2D7FF0C1200D5
:100846000C6A0E6A0250D8A43CEF04F001C002F014
:1008560000C001F0006A0E860250D8A43CEF04F0F6
:1008660001C002F0016A0E960E880250D8B44EEF0F
:1008760004F00E50035ED8A4D8A053EF04F0D8902D
:1008860002BE59EF04F0003601360236032E43EF5E
:1008960004F053EF04F0010E0C6EAFDD5DEF04F0D3
:1008A600020E0C6E30EC00F05DEF04F0040E0C6EE0
:0608B6003DEC00F0120011
:0808BC000B6A0B86FF0E12000F
:1008C40063C004F064C005F004C002F005C003F086
:1008D400044A052A65C000F066C001F00001654BBA
:1008E400662B00C0E9FF01C0EAFF02C0E1FF03C0BC
:1008F400E2FFEECFE6FF02C0E9FF03C0EAFFEE52DB
:0E09040001E0E2D763C000F064C001F0120011
:100912000050086E0150006E016A026A036A0B6A97
:100922000C6A960E036E0A6A00C001F008C000F05D
:08093200086A026A87DF120067
:10093A00596A5A6A51C05BF052C05CF053C05DF00C
:10094A0054C05EF0800E5418006E800E005C08E100
:10095A00000E535C05E1000E525C02E1000E515C90
:10096A0010E2010E596E000E5A6E5B6A5C6A5D6A8D
:10097A005E6A51505B5E52505C5A53505D5A5450F5
:10098A005E5A5BC063F05CC064F05DC065F05EC037
:10099A0066F055C067F056C068F034DD0B0E576E2E
:1009AA00000E586E000E006E5850005C02E157505F
:1009BA00000819E257505524E16E58505620E26E4D
:1009CA00010E575C006E000E5858016E00505524F7
:1009DA00E96E01505620EA6EEECFE6FF010E575E31
:1009EA00000E585ADFD755C0E1FF56C0E2FF200E6D
:1009FA00E66E59505A101AE0576A586A57505524E9
:100A0A00E96E58505620EA6EEE50200A03E1574A22
:100A1A00582AF4D7010E575E000E585A57505524DB
:0E0A2A00E16E58505620E26E2D0EE66E120060
:100A38000FD0800E516E19D0C00E516E16D0940E84
:100A4800516E13D0D40E516E10D0800E516E0DD051
:100A58005150010AEEE05150020AEEE05150030AEB
:100A6800EEE05150040AEEE0F0D75204006E515007
:100A7800002600C051F02D8200C06DF041EC00F05E
:0E0A88002D9253C06DF041EC00F02D82120053
:100A9600810E00016E6F0F0E6F6F070E706F960E50
:100AA600716F010E726F3FDE005217E02F50FF0A82
:100AB60002E1FF0E2E1807E0FF0E2F5C02E1F50E95
:100AC6002E5C01E205D0FF0E2E6EFF0E2F6E04D0B7
:100AD6000A0E2E26000E2F222D84810E6E6F0F0E0B
:100AE6006F6F060E706F960E716F010E726F1BDEC2
:100AF600005217E02F50EA0A02E1600E2E1807E0B6
:100B06002F50EA0802E12E506A0801E205D0600E75
:100B16002E6EEA0E2F6E04D00A0E2E5E000E2F5A8F
:100B26002D84810E6E6F0F0E6F6F050E706F960E11
:100B3600716F010E726FF7DD005202E02D702D8489
:020B460012009B
:100B4800810E00016E6F0F0E6F6F070E706F960E9D
:100B5800716F010E726FE6DD005217E02F50FF0A29
:100B680002E1FF0E2E1807E0FF0E2F5C02E1F50EE2
:100B78002E5C01E205D0FF0E2E6EFF0E2F6E04D004
:100B88000A0E2E26000E2F222D84810E6E6F0F0E58
:100B98006F6F060E706F960E716F010E726FC2DD69
:100BA800005217E02F50EA0A02E1600E2E1807E003
:100BB8002F50EA0802E12E506A0801E205D0600EC3
:100BC8002E6EEA0E2F6E04D00A0E2E5E000E2F5ADD
:100BD8002D84810E6E6F0F0E6F6F050E706F960E5F
:100BE800716F010E726F9EDD005202E02D702D8430
:020BF8001200E9
:100BFA00556A050E555C0AE255505324E16E000E03
:100C0A005420E26E200EE66E552AF3D7555053242F
:100C1A00E16E000E5420E26EE66A550655505324E2
:100C2A00566E000E5420576E0A0E046E000E056EA4
:100C3A0051C000F052C001F059DD08C000F009C0EF
:100C4A0001F0300E002656C0E1FF57C0E2FF00C097
:100C5A00E6FF0A0E046E000E056E51C000F052C087
:100C6A0001F044DD00C051F001C052F0000E01183D
:100C7A0002E1000E001801E102D05506CFD712009A
:100C8A005E6A5F6A0001606B616B626B51C05AF009
:100C9A0052C05BF053C05CF054C05DF05D50FF0A77
:100CAA0008E15C50FF0A05E15B50FF0A02E15A5075
:100CBA00FF0A0CE155C063F056C064F0260E656F5A
:100CCA00000E666FFADD030E006E5BD2010E586EDF
:100CDA005CAE0FD0800E5C18006E00C05CF0582A23
:100CEA005F2A55C0E1FF56C0E2FF2D0EE66E554A57
:100CFA00562A000E006E5D1808E100505C1805E1E6
:100D0A0000505B1802E15A50000A0BE155C063F02B
:100D1A0056C064F02A0E656F000E666FCEDD006A5B
:100D2A0030D25D50FF0A08E15C50000A05E15B50D1
:100D3A00000A02E15A50000A0CE155C063F056C09D
:100D4A0064F0220E656F000E666FB7DD58C000F0C2
:100D5A0018D2000E046E000E056E000E066E7F0E8F
:100D6A00076E5AC000F05BC001F05CC002F05DC0C3
:100D7A0003F084EC02F0010ED8B0000E006E0052AF
:100D8A001BE05AC000F05BC001F05CC002F05DC01D
:100D9A0003F0000E046E000E056E200E066E820E23
:100DAA00076E14DC00C05AF001C05BF002C05CF0B0
:100DBA0003C05DF06207CDD7000E046E000E056E0B
:100DCA00200E066E820E076E5AC000F05BC001F05C
:100DDA005CC002F05DC003F084EC02F0000ED8B0F3
:100DEA00010E006E00521CE05AC000F05BC001F018
:100DFA005CC002F05DC003F0CD0E046ECC0E056E31
:100E0A004C0E066E7B0E076EEBEC02F000C05AF039
:100E1A0001C05BF002C05CF003C05DF0622BCCD76E
:100E2A00FF0E5A14086EFF0E5B14096E7F0E5C14D7
:100E3A000A6E000E5D140B6E08C004F009C005F0BE
:100E4A000AC006F00BC007F00436049005360636D1
:100E5A000736000E5A14006E000E5B14016E000E67
:100E6A005C14026EFF0E5D14036E00C05AF001C0DE
:100E7A005BF002C05CF003C05DF004505A10006ED3
:100E8A0005505B10016E06505C10026E07505D1033
:100E9A00036E00C05AF001C05BF002C05CF003C0F0
:100EAA005DF07F0E5D5C006E00C059F0010E5D6E54
:100EBA0000C004F05AC000F05BC001F05CC002F050
:100ECA005DC003F0045007E0003600900136023698
:100EDA000336FF0FF8D700C05AF001C05BF002C01A
:100EEA005CF003C05DF055C0E1FF56C0E2FF5D5003
:100EFA00300FE66E554A562A5F2A800E6219006E36
:100F0A00800E010A005C08E3800E060A006E800E5D
:100F1A006219005C01E30BD055C0E1FF56C0E2FF45
:100F2A002E0EE66E554A562A010E5E6E5F2A060E90
:100F3A00596E5950000A58E05D6A5AC000F05BC009
:100F4A0001F05CC002F05DC003F00036009001368B
:100F5A0002360336003600900136023603365A50FE
:100F6A0000265B5001225C5002225D50032200C021
:100F7A005AF001C05BF002C05CF003C05DF05AC0D9
:100F8A0000F05BC001F05CC002F05DC003F0003607
:100F9A00009001360236033600C05AF001C05BF0F9
:100FAA0002C05CF003C05DF055C0E1FF56C0E2FF2D
:100FBA005D50300FE66E554A562A5F2A5E50000A87
:100FCA0011E162076251000A0DE1010E616F55C01D
:100FDA00E1FF56C0E2FF2E0EE66E554A562A010E72
:100FEA005E6E5F2A5906A5D76151010AD8B45F0619
:100FFA00FF0E5524E96EFF0E5620EA6EEE502E0AB9
:10100A0005E1010E555E000E565A5F06800E000A73
:10101A00006E800E6219005C02E2010E606F800EA3
:10102A006219006E800E000A005C02E2020E606F16
:10103A0062C059F0800E090A006E800E6219005CC7
:10104A0002E3602B02D0020E602760515F24016E1A
:10105A00026A000E0222800E0218006E800E005CE8
:10106A0002E15750015C0AE255C0E1FF56C0E2FFB7
:10107A00300EE66E554A562A5F2AE7D76251000AB1
:10108A0043E055C0E1FF56C0E2FF650EE66E554AE1
:10109A00562A800E6219006E800E000A005C0BE26E
:1010AA0055C0E1FF56C0E2FF2D0EE66E554A562A9C
:1010BA0062510008626F62C059F0800E090A006E20
:1010CA00800E6219005C0FE20A0E046E59C000F02D
:1010DA00D4EC03F055C0E1FF56C0E2FF0050300FD8
:1010EA00E66E554A562A0A0E046E59C000F0D4EC30
:1010FA0003F008C000F055C0E1FF56C0E2FF0050FF
:10110A00300FE66E554A562A60515F24006E00C0C1
:10111A005FF05750005C016E01C059F0800E000A62
:10112A00006E800E0118005C0EE2800E000A006E4E
:10113A00800E5918005C06E25906010E555E000E33
:10114A00565AF3D718D0800E5918006E800E000A2E
:10115A00005C11E2800E5918006E800E000A005CD5
:10116A000AE2592A55C0E1FF56C0E2FF300EE66E88
:10117A00554A562AEFD755C0E1FF56C0E2FFE66A44
:04118A00006A1200E5
:10118E000450000A12E10550000A0FE10650000A51
:10119E000CE10750000A09E1FF0E006EFF0E016E12
:1011AE007F0E026EFF0E036EA8D0086A096A075002
:1011BE00D8B472EF09F00350D8B477EF09F00250AB
:1011CE0006180A6E028E068E0E6A02C008F001C064
:1011DE000CF000C00DF004500D5E0550D8A0053C7B
:1011EE000C5E0650D8A0063C085E086A0C6A0D6AB2
:1011FE00D8A009EF09F0D89002320132003208323D
:10120E00010E0E6E0750035ED8A016EF09F07E0E8B
:10121E000E240326D8B07CEF09F01CEF09F07E0EE9
:10122E000E240326D8A081EF09F0180E0B6E0D3692
:10123E000C3608360036013602360E360450005E85
:10124E000550D8A0053C015E0650D8A0063C025EB3
:10125E0006340E120EA037EF09F00D8042EF09F0A2
:10126E00045000260550D8B0053C01260650D8B0D3
:10127E00062802260D900B2E1EEF09F068EF09F0DE
:10128E00D8900036013602360E360450005E0550F8
:10129E00D8A0053C015E0650D8A0063C025E06347E
:1012AE000E10010B0D26D8B00C2AD8B4082AD8A4DB
:1012BE0068EF09F008320C320D32032AD8B47CEFF5
:1012CE0009F00AAE089E0850026E0C50016E0D50C9
:1012DE00006E84EF09F0010E5EEC04F084EF09F06D
:1012EE00020E00EC02F084EF09F0040E24EC00F084
:0C12FE0084EF09F0080E30EC00F0120044
:10130A000B6A0C6A0A6A0350D8B4CFEF09F0028E4E
:10131A008E0E035E03BE97EF09F0D8B497EF09F07B
:10132A00D3EF09F0036C080E035CD8A0AEEF09F006
:10133A00036E013602C001F0026A080E035CD8A0EF
:10134A00AEEF09F00136016A0350D8A4D890B8EF7D
:10135A0009F00350D8B4B8EF09F0D890023201323C
:10136A00032EB2EF09F00BBC01A0C5EF09F0D8A01B
:10137A00C5EF09F0012AD8B4022A02BEE2EF09F049
:10138A000AAEE8EF09F0021E011E012AD8B4022AA9
:10139A00E8EF09F0026A016AE8EF09F00B800BAE88
:1013AA00ECEF09F0026A0AAEECEF09F0FF0E026EEA
:1013BA00016E0A360232ECEF09F0010E0C6E76EC81
:1013CA0002F0EEEF09F0000E0C6EEEEF09F0FF0EE0
:0C13DA000C6E0150006E0250016E1200FB
:1013E6000FD0800E516E19D0C00E516E16D0940ECD
:1013F600516E13D0D40E516E10D0800E516E0DD09A
:101406005150010AEEE05150020AEEE05150030A33
:10141600EEE05150040AEEE0F0D75204006E51504F
:10142600002600C051F000C06DF041EC00F02D9296
:10143600556A55505324E96E000E5420EA6EEE525A
:101446000CE055505324E96E000E5420EA6EEECFA0
:0E14560063F0CEEC03F0552AECD72D82120085
:10146400F2A40CD0F294B10ED76EE00ED66ECDB0CD
:0E14740003D04BEC05F002D0A4EC05F0120002
:101482009EA026D0212A2C50215CD8A08C7A2C50E8
:10149200215C02E38C708C9A30502C24016E026A1B
:1014A200000E0222000E021802E10150211802E190
:1014B200216A8C90CE6A2FC000F0016A00C0CFFF73
:1014C2002E50FF084F6E2FC050F0FF0E50569E90C8
:0214D200120006
:1014D4000900F5CFE6FF0006FBE10106F9E1120081
:1014E400880ED56EB10ED76EE00ED66EF28AF194E8
:0214F4001200E4
:0E14F6002D94010E00016D6F41EC00F012000C
:10150400010E516E010E526E560E536E1CEC05F018
:10151400610E636FCEEC03F0720E636FCEEC03F0DA
:10152400200E636FCEEC03F0430E636FCEEC03F03A
:10153400610E636FCEEC03F0700E636FCEEC03F0BC
:10154400200E636FCEEC03F03A0E636FCEEC03F023
:10155400020E516E060E526E6D0E536E1CEC05F0AB
:10156400730E636FCEEC03F0020E516E0E0E526ECC
:10157400480E536E1CEC05F07A0E636FCEEC03F04C
:101584004FC000F050C001F089EC04F0950E046ED9
:10159400BF0E056E560E066E680E076EEBEC02F07B
:1015A400000E046E000E056E000E066E800E076EB1
:1015B400EBEC02F0000E046E000E056E7A0E066E61
:1015C400880E076EE2DD00C051F001C052F002C087
:1015D40053F003C054F0310E556E000E566E050ED6
:1015E400576E45EC06F04FC000F050C001F089EC96
:1015F40004F0950E046EBF0E056E560E066E680E50
:10160400076EEBEC02F0000E046E000E056E000E89
:10161400066E800E076EEBEC02F000C004F001C011
:1016240005F002C006F003C007F0000E006E000EC5
:10163400016E000E026E7F0E036EA7DD64DE00C035
:1016440051F001C052F0400E536E000E546EFDEC8A
:1016540005F0020E516E010E526E310E536E000EE5
:10166400546EBFDE020E516E080E526E400E536E63
:08167400000E546EB6DE1200F8
:10167C00010E516E010E526E560E536E1CEC05F09F
:10168C00610E636FCEEC03F0720E636FCEEC03F061
:10169C00200E636FCEEC03F0490E636FCEEC03F0BB
:1016AC006E0E636FCEEC03F0630E636FCEEC03F043
:1016BC00200E636FCEEC03F03A0E636FCEEC03F0AA
:1016CC002EC051F02FC052F0000E536E546E310EDE
:1016DC00556E000E566E9DEC04F0020E516E010E0E
:0E16EC00526E310E536E000E546E77DE1200F9
:0E16FA00410ECD6ECE6ACF6A9D809F80120099
:10170800959E959C9390939293949396839E839C95
:10171800819681948192819019EC00F019EC00F087
:1017280019EC00F081828180838E13EC00F0839E97
:1017380019EC00F0838E13EC00F0839E19EC00F096
:10174800838E13EC00F0839E19EC00F08190838E59
:1017580013EC00F0839E19EC00F0838E13EC00F07C
:10176800839E81928186838E13EC00F0839E19EC10
:1017780000F081968180838E13EC00F0839E819027
:10178800838E13EC00F0839E19EC00F0838E13EC2B
:1017980000F0839E8180838E13EC00F0839E19EC09
:1017A80000F08190838E13EC00F0839E8186818403
:1017B80081828180838E13EC00F0839E19EC00F007
:0417C8002D8212005C
:1017CC0000C01BF001C01AF00CC019F00DC018F0CD
:1017DC00E9CF1CF0EACF1DF0156ED8CF16F0E0CF94
:1017EC0017F03ADE1750E06E1650D86E153A1538D1
:1017FC001BC000F01AC001F019C00CF018C00DF09D
:0A180C001CC0E9FF1DC0EAFF100038
:1018160000C020F001C01FF002C01EF02FDE20C065
:0C18260000F01FC001F01EC002F0110015
:1018320044EC0CF0F28EF28CD08E1F0E956EF00EF0
:10184200936EFF0E946E2D80600E2E6EEA0E2F6E3A
:10185200C26A0F0EC16E45DE4FDF55DF0C0E00016E
:101862006D6F41EC00F02DA401D044DE2DA002D01A
:0A18720048DE01D002DFF7D7FFD7F0
:1018880010EE21F00B0E006E010E016E7C0EF66E4E
:0E189800180EF76E000EF86E6AEC0AF01200E1
:01187C00006B
:04187D00494E46008A
:041881004E614E0066
:02188500300031
:020000040030CA
:0E000000000C1E1EFF0381FF0FC00FE00F401B
:00000001FF
